:020000020000FC
:1000000000C002E00EBF0FE50DBF0FE004BB0EE025
:1000100007BB06E008BB00E001BB07EC02BB000029
:100020004FEF000000B3000002FD07C01DD01FD03D
:1000300049D01AD01CD04FD0F9CF16D0BCD080D028
:10004000D1D04A95D1F74FEA02E005BB95D000E048
:1000500005BBF3CF40EA08D0AED072D008D14A95A4
:10006000C9F74FEF76D0E9CF09E005BB089500B39B
:10007000000000FD16C001FD14C000E000BF00E05C
:1000800008B904E008BB82D008B105FD0AC006E04B
:1000900000000000000002E008BB78D008B105FFB6
:1000A000E6CF4ED006E008BB08E808B9089540E066
:1000B00000B3000000FD03C001FD01C0089540D061
:1000C0004FEF089540D036D0F2DF47FD0DC032D05B
:1000D0003AD036D008953DD02DD0E9DF47FD17C086
:1000E00029D037D02DD008952ED024D0E0DF47FD81
:1000F00030D047FD9ECF01E005BB31D009E005BB04
:1001000045D000E005BBD3DF47FDEECF8FCF21D038
:1001100011D0CDDF47FD17D047FD88CF08E005BBE4
:100120001ED009E005BB32D000E005BBC0DF47FDB3
:10013000EECF7FCF09E005BB1FD000E005BB0895DF
:1001400000E005BB089502E005BB09D000E005BB57
:10015000089504E005BB03D000E005BB089534E139
:100160002FEF1FEF1A95F1F72A95D9F73A95C1F7B6
:1001700030EB3A95F1F7089539E02FEF1FEF1A951C
:10018000F1F72A95D9F73A95C1F7089500000000D4
:10019000000000000000000000000000000000005F
:1001A000000000000000000000000000000000004F
:1001B00000000000089535E02FEF1FEF00B30000AE
:1001C00000FD0FC001FD0DC01A95C1F72A95A9F7D2
:1001D0003A9591F700B3000000FD03C001FD01C096
:1001E0002CCF089500E000BF00E008B904E008BB90
:1001F000CDDF08B105FD2ED002E012E005BB07C03F
:1002000008E808B900E008BB04E014E005BB00B34F
:10021000000000FDFCCF01FDFACF00E000BF00E0D0
:1002200008B904E008BBB2DF08B105FDF0CF06E075
:1002300008BB00000000000002E008BBA7DF08B117
:1002400005FDE5CF06E008BB08E808B99FDF12FD11
:1002500001CF089506E008BB00E000BF00E008B948
:100260000EE008BB93DF08B105FFCACF089505E093
:1002700005BB00B38BDF00FDFCCF01FDFACF00E032
:1002800000BF00E008B904E008BB80DF08B105FD4D
:10029000F0CF06E008BB00000000000002E008BB51
:1002A00075DF08B105FDE5CF06E008BB08E808B931
:0402B0006DDF089561
:00000001FF
